{
  "_format": "hh-sol-artifact-1",
  "contractName": "SubFactory",
  "sourceName": "contracts/SubFactory.sol",
  "abi": [
    {
      "inputs": [
        {
          "internalType": "uint256",
          "name": "_fee",
          "type": "uint256"
        },
        {
          "internalType": "uint256",
          "name": "_royalty",
          "type": "uint256"
        }
      ],
      "stateMutability": "nonpayable",
      "type": "constructor"
    },
    {
      "anonymous": false,
      "inputs": [
        {
          "indexed": false,
          "internalType": "string",
          "name": "name",
          "type": "string"
        },
        {
          "indexed": false,
          "internalType": "string",
          "name": "symbol",
          "type": "string"
        },
        {
          "indexed": false,
          "internalType": "uint256",
          "name": "id",
          "type": "uint256"
        }
      ],
      "name": "CreatedSub",
      "type": "event"
    },
    {
      "anonymous": false,
      "inputs": [
        {
          "indexed": false,
          "internalType": "string",
          "name": "name",
          "type": "string"
        },
        {
          "indexed": false,
          "internalType": "string",
          "name": "symbol",
          "type": "string"
        },
        {
          "indexed": false,
          "internalType": "uint256",
          "name": "id",
          "type": "uint256"
        }
      ],
      "name": "ModifiedSub",
      "type": "event"
    },
    {
      "anonymous": false,
      "inputs": [
        {
          "indexed": true,
          "internalType": "address",
          "name": "previousOwner",
          "type": "address"
        },
        {
          "indexed": true,
          "internalType": "address",
          "name": "newOwner",
          "type": "address"
        }
      ],
      "name": "OwnershipTransferred",
      "type": "event"
    },
    {
      "anonymous": false,
      "inputs": [
        {
          "indexed": false,
          "internalType": "uint256",
          "name": "id",
          "type": "uint256"
        },
        {
          "indexed": false,
          "internalType": "uint256",
          "name": "timestamp",
          "type": "uint256"
        }
      ],
      "name": "StartedSale",
      "type": "event"
    },
    {
      "inputs": [
        {
          "internalType": "address",
          "name": "_partner",
          "type": "address"
        }
      ],
      "name": "addPartner",
      "outputs": [],
      "stateMutability": "nonpayable",
      "type": "function"
    },
    {
      "inputs": [
        {
          "internalType": "string",
          "name": "_name",
          "type": "string"
        },
        {
          "internalType": "string",
          "name": "_symbol",
          "type": "string"
        },
        {
          "internalType": "uint256",
          "name": "_price",
          "type": "uint256"
        },
        {
          "internalType": "uint256",
          "name": "_interval",
          "type": "uint256"
        },
        {
          "internalType": "uint256",
          "name": "_max",
          "type": "uint256"
        }
      ],
      "name": "createSub",
      "outputs": [
        {
          "internalType": "uint256",
          "name": "",
          "type": "uint256"
        }
      ],
      "stateMutability": "payable",
      "type": "function"
    },
    {
      "inputs": [],
      "name": "getFee",
      "outputs": [
        {
          "internalType": "uint256",
          "name": "",
          "type": "uint256"
        }
      ],
      "stateMutability": "view",
      "type": "function"
    },
    {
      "inputs": [
        {
          "internalType": "address",
          "name": "_owner",
          "type": "address"
        }
      ],
      "name": "getOwnedIds",
      "outputs": [
        {
          "internalType": "uint256[]",
          "name": "",
          "type": "uint256[]"
        }
      ],
      "stateMutability": "view",
      "type": "function"
    },
    {
      "inputs": [],
      "name": "getRoyalty",
      "outputs": [
        {
          "internalType": "uint256",
          "name": "",
          "type": "uint256"
        }
      ],
      "stateMutability": "view",
      "type": "function"
    },
    {
      "inputs": [
        {
          "internalType": "uint256",
          "name": "_id",
          "type": "uint256"
        },
        {
          "internalType": "uint256",
          "name": "_price",
          "type": "uint256"
        },
        {
          "internalType": "uint256",
          "name": "_interval",
          "type": "uint256"
        },
        {
          "internalType": "uint256",
          "name": "_max",
          "type": "uint256"
        }
      ],
      "name": "modifySub",
      "outputs": [],
      "stateMutability": "nonpayable",
      "type": "function"
    },
    {
      "inputs": [],
      "name": "owner",
      "outputs": [
        {
          "internalType": "address",
          "name": "",
          "type": "address"
        }
      ],
      "stateMutability": "view",
      "type": "function"
    },
    {
      "inputs": [],
      "name": "renounceOwnership",
      "outputs": [],
      "stateMutability": "nonpayable",
      "type": "function"
    },
    {
      "inputs": [
        {
          "internalType": "uint256",
          "name": "_id",
          "type": "uint256"
        }
      ],
      "name": "startSale",
      "outputs": [],
      "stateMutability": "nonpayable",
      "type": "function"
    },
    {
      "inputs": [
        {
          "internalType": "address",
          "name": "newOwner",
          "type": "address"
        }
      ],
      "name": "transferOwnership",
      "outputs": [],
      "stateMutability": "nonpayable",
      "type": "function"
    },
    {
      "inputs": [],
      "name": "withdraw",
      "outputs": [],
      "stateMutability": "nonpayable",
      "type": "function"
    }
  ],
  "bytecode": "0x60806040523480156200001157600080fd5b506040516200615538038062006155833981810160405281019062000037919062000179565b620000576200004b6200006d60201b60201c565b6200007560201b60201c565b81600281905550806003819055505050620001c0565b600033905090565b60008060009054906101000a900473ffffffffffffffffffffffffffffffffffffffff169050816000806101000a81548173ffffffffffffffffffffffffffffffffffffffff021916908373ffffffffffffffffffffffffffffffffffffffff1602179055508173ffffffffffffffffffffffffffffffffffffffff168173ffffffffffffffffffffffffffffffffffffffff167f8be0079c531659141344cd1fd0a4f28419497f9722a3daafe3b4186f6b6457e060405160405180910390a35050565b600080fd5b6000819050919050565b62000153816200013e565b81146200015f57600080fd5b50565b600081519050620001738162000148565b92915050565b6000806040838503121562000193576200019262000139565b5b6000620001a38582860162000162565b9250506020620001b68582860162000162565b9150509250929050565b615f8580620001d06000396000f3fe608060405260043610620000aa5760003560e01c80638bf34237116200006d5780638bf34237146200016f5780638da5cb5b146200019d578063ced72f8714620001cd578063d8a183ea14620001fd578063eec1cbb71462000233578063f2fde38b146200027757620000aa565b80630e3ab61d14620000af5780633ccfd60b14620000dd5780634d47732a14620000f757806361a11c6a1462000127578063715018a61462000155575b600080fd5b348015620000bc57600080fd5b50620000db6004803603810190620000d5919062000e9b565b620002a5565b005b348015620000ea57600080fd5b50620000f5620004ad565b005b3480156200010457600080fd5b506200010f6200050a565b6040516200011e919062000ede565b60405180910390f35b3480156200013457600080fd5b506200015360048036038101906200014d919062000efb565b62000514565b005b3480156200016257600080fd5b506200016d6200088a565b005b3480156200017c57600080fd5b506200019b600480360381019062000195919062000fd2565b620008a2565b005b348015620001aa57600080fd5b50620001b562000907565b604051620001c4919062001015565b60405180910390f35b348015620001da57600080fd5b50620001e562000930565b604051620001f4919062000ede565b60405180910390f35b6200021b600480360381019062000215919062001194565b6200093a565b6040516200022a919062000ede565b60405180910390f35b3480156200024057600080fd5b506200025f600480360381019062000259919062000fd2565b62000ba5565b6040516200026e919062001328565b60405180910390f35b3480156200028457600080fd5b50620002a360048036038101906200029d919062000fd2565b62000c3e565b005b33600760008273ffffffffffffffffffffffffffffffffffffffff1673ffffffffffffffffffffffffffffffffffffffff16815260200190815260200160002060009054906101000a900460ff1662000335576040517f08c379a00000000000000000000000000000000000000000000000000000000081526004016200032c90620013d3565b60405180910390fd5b3373ffffffffffffffffffffffffffffffffffffffff166005600084815260200190815260200160002060009054906101000a900473ffffffffffffffffffffffffffffffffffffffff1673ffffffffffffffffffffffffffffffffffffffff1614620003d9576040517f08c379a0000000000000000000000000000000000000000000000000000000008152600401620003d09062001445565b60405180910390fd5b6004600083815260200190815260200160002060009054906101000a900473ffffffffffffffffffffffffffffffffffffffff1673ffffffffffffffffffffffffffffffffffffffff1663b66a0e5d6040518163ffffffff1660e01b8152600401600060405180830381600087803b1580156200045557600080fd5b505af11580156200046a573d6000803e3d6000fd5b505050507f54b25eb4bcc0ae6a90c95868856a8cb624d043c9220fdd76db16e3f1d9422f098242604051620004a192919062001467565b60405180910390a15050565b620004b762000cc9565b620004c162000907565b73ffffffffffffffffffffffffffffffffffffffff166108fc479081150290604051600060405180830381858888f1935050505015801562000507573d6000803e3d6000fd5b50565b6000600354905090565b33600760008273ffffffffffffffffffffffffffffffffffffffff1673ffffffffffffffffffffffffffffffffffffffff16815260200190815260200160002060009054906101000a900460ff16620005a4576040517f08c379a00000000000000000000000000000000000000000000000000000000081526004016200059b90620013d3565b60405180910390fd5b3373ffffffffffffffffffffffffffffffffffffffff166005600087815260200190815260200160002060009054906101000a900473ffffffffffffffffffffffffffffffffffffffff1673ffffffffffffffffffffffffffffffffffffffff161462000648576040517f08c379a00000000000000000000000000000000000000000000000000000000081526004016200063f9062001445565b60405180910390fd5b600083116200068e576040517f08c379a00000000000000000000000000000000000000000000000000000000081526004016200068590620014e4565b60405180910390fd5b60006004600087815260200190815260200160002060009054906101000a900473ffffffffffffffffffffffffffffffffffffffff1690508073ffffffffffffffffffffffffffffffffffffffff166378c1b8608686866040518463ffffffff1660e01b8152600401620007059392919062001506565b600060405180830381600087803b1580156200072057600080fd5b505af115801562000735573d6000803e3d6000fd5b505050507fdb7a0a36bd85b3cd314fe909785dc7c1a4aed80a5dacd2a62d2b3828705171188173ffffffffffffffffffffffffffffffffffffffff166306fdde036040518163ffffffff1660e01b815260040160006040518083038186803b158015620007a157600080fd5b505afa158015620007b6573d6000803e3d6000fd5b505050506040513d6000823e3d601f19601f82011682018060405250810190620007e19190620015f7565b8273ffffffffffffffffffffffffffffffffffffffff166395d89b416040518163ffffffff1660e01b815260040160006040518083038186803b1580156200082857600080fd5b505afa1580156200083d573d6000803e3d6000fd5b505050506040513d6000823e3d601f19601f82011682018060405250810190620008689190620015f7565b886040516200087a9392919062001694565b60405180910390a1505050505050565b6200089462000cc9565b620008a0600062000d4e565b565b620008ac62000cc9565b6001600760008373ffffffffffffffffffffffffffffffffffffffff1673ffffffffffffffffffffffffffffffffffffffff16815260200190815260200160002060006101000a81548160ff02191690831515021790555050565b60008060009054906101000a900473ffffffffffffffffffffffffffffffffffffffff16905090565b6000600254905090565b600033600760008273ffffffffffffffffffffffffffffffffffffffff1673ffffffffffffffffffffffffffffffffffffffff16815260200190815260200160002060009054906101000a900460ff16620009cc576040517f08c379a0000000000000000000000000000000000000000000000000000000008152600401620009c390620013d3565b60405180910390fd5b60025434101562000a14576040517f08c379a000000000000000000000000000000000000000000000000000000000815260040162000a0b906200172f565b60405180910390fd5b6000841162000a5a576040517f08c379a000000000000000000000000000000000000000000000000000000000815260040162000a5190620014e4565b60405180910390fd5b600062000a68600162000e12565b9050878787878760405162000a7d9062000e3e565b62000a8d95949392919062001751565b604051809103906000f08015801562000aaa573d6000803e3d6000fd5b506004600083815260200190815260200160002060006101000a81548173ffffffffffffffffffffffffffffffffffffffff021916908373ffffffffffffffffffffffffffffffffffffffff160217905550336005600083815260200190815260200160002060006101000a81548173ffffffffffffffffffffffffffffffffffffffff021916908373ffffffffffffffffffffffffffffffffffffffff16021790555062000b5a600162000e20565b7f5df8545f763b6056a21994b0eae088b9dce6ce34d574517bf8ffa8b955ba4d2b88888360405162000b8f9392919062001694565b60405180910390a1809250505095945050505050565b6060600660008373ffffffffffffffffffffffffffffffffffffffff1673ffffffffffffffffffffffffffffffffffffffff16815260200190815260200160002080548060200260200160405190810160405280929190818152602001828054801562000c3257602002820191906000526020600020905b81548152602001906001019080831162000c1d575b50505050509050919050565b62000c4862000cc9565b600073ffffffffffffffffffffffffffffffffffffffff168173ffffffffffffffffffffffffffffffffffffffff16141562000cbb576040517f08c379a000000000000000000000000000000000000000000000000000000000815260040162000cb29062001832565b60405180910390fd5b62000cc68162000d4e565b50565b62000cd362000e36565b73ffffffffffffffffffffffffffffffffffffffff1662000cf362000907565b73ffffffffffffffffffffffffffffffffffffffff161462000d4c576040517f08c379a000000000000000000000000000000000000000000000000000000000815260040162000d4390620018a4565b60405180910390fd5b565b60008060009054906101000a900473ffffffffffffffffffffffffffffffffffffffff169050816000806101000a81548173ffffffffffffffffffffffffffffffffffffffff021916908373ffffffffffffffffffffffffffffffffffffffff1602179055508173ffffffffffffffffffffffffffffffffffffffff168173ffffffffffffffffffffffffffffffffffffffff167f8be0079c531659141344cd1fd0a4f28419497f9722a3daafe3b4186f6b6457e060405160405180910390a35050565b600081600001549050919050565b6001816000016000828254019250508190555050565b600033905090565b61468980620018c783390190565b6000604051905090565b600080fd5b600080fd5b6000819050919050565b62000e758162000e60565b811462000e8157600080fd5b50565b60008135905062000e958162000e6a565b92915050565b60006020828403121562000eb45762000eb362000e56565b5b600062000ec48482850162000e84565b91505092915050565b62000ed88162000e60565b82525050565b600060208201905062000ef5600083018462000ecd565b92915050565b6000806000806080858703121562000f185762000f1762000e56565b5b600062000f288782880162000e84565b945050602062000f3b8782880162000e84565b935050604062000f4e8782880162000e84565b925050606062000f618782880162000e84565b91505092959194509250565b600073ffffffffffffffffffffffffffffffffffffffff82169050919050565b600062000f9a8262000f6d565b9050919050565b62000fac8162000f8d565b811462000fb857600080fd5b50565b60008135905062000fcc8162000fa1565b92915050565b60006020828403121562000feb5762000fea62000e56565b5b600062000ffb8482850162000fbb565b91505092915050565b6200100f8162000f8d565b82525050565b60006020820190506200102c600083018462001004565b92915050565b600080fd5b600080fd5b6000601f19601f8301169050919050565b7f4e487b7100000000000000000000000000000000000000000000000000000000600052604160045260246000fd5b62001087826200103c565b810181811067ffffffffffffffff82111715620010a957620010a86200104d565b5b80604052505050565b6000620010be62000e4c565b9050620010cc82826200107c565b919050565b600067ffffffffffffffff821115620010ef57620010ee6200104d565b5b620010fa826200103c565b9050602081019050919050565b82818337600083830152505050565b60006200112d6200112784620010d1565b620010b2565b9050828152602081018484840111156200114c576200114b62001037565b5b6200115984828562001107565b509392505050565b600082601f83011262001179576200117862001032565b5b81356200118b84826020860162001116565b91505092915050565b600080600080600060a08688031215620011b357620011b262000e56565b5b600086013567ffffffffffffffff811115620011d457620011d362000e5b565b5b620011e28882890162001161565b955050602086013567ffffffffffffffff81111562001206576200120562000e5b565b5b620012148882890162001161565b9450506040620012278882890162000e84565b93505060606200123a8882890162000e84565b92505060806200124d8882890162000e84565b9150509295509295909350565b600081519050919050565b600082825260208201905092915050565b6000819050602082019050919050565b620012918162000e60565b82525050565b6000620012a5838362001286565b60208301905092915050565b6000602082019050919050565b6000620012cb826200125a565b620012d7818562001265565b9350620012e48362001276565b8060005b838110156200131b578151620012ff888262001297565b97506200130c83620012b1565b925050600181019050620012e8565b5085935050505092915050565b60006020820190508181036000830152620013448184620012be565b905092915050565b600082825260208201905092915050565b7f546869732061646472657373206973206e6f7420696e2074686520726567697360008201527f7472790000000000000000000000000000000000000000000000000000000000602082015250565b6000620013bb6023836200134c565b9150620013c8826200135d565b604082019050919050565b60006020820190508181036000830152620013ee81620013ac565b9050919050565b7f596f7520646f6e2774206f776e20746869732073756200000000000000000000600082015250565b60006200142d6016836200134c565b91506200143a82620013f5565b602082019050919050565b6000602082019050818103600083015262001460816200141e565b9050919050565b60006040820190506200147e600083018562000ecd565b6200148d602083018462000ecd565b9392505050565b7f496e76616c69642073756220696e74657276616c000000000000000000000000600082015250565b6000620014cc6014836200134c565b9150620014d98262001494565b602082019050919050565b60006020820190508181036000830152620014ff81620014bd565b9050919050565b60006060820190506200151d600083018662000ecd565b6200152c602083018562000ecd565b6200153b604083018462000ecd565b949350505050565b60005b838110156200156357808201518184015260208101905062001546565b8381111562001573576000848401525b50505050565b6000620015906200158a84620010d1565b620010b2565b905082815260208101848484011115620015af57620015ae62001037565b5b620015bc84828562001543565b509392505050565b600082601f830112620015dc57620015db62001032565b5b8151620015ee84826020860162001579565b91505092915050565b60006020828403121562001610576200160f62000e56565b5b600082015167ffffffffffffffff81111562001631576200163062000e5b565b5b6200163f84828501620015c4565b91505092915050565b600081519050919050565b6000620016608262001648565b6200166c81856200134c565b93506200167e81856020860162001543565b62001689816200103c565b840191505092915050565b60006060820190508181036000830152620016b0818662001653565b90508181036020830152620016c6818562001653565b9050620016d7604083018462000ecd565b949350505050565b7f4e6f7420656e6f75676820457468657220666f72206665650000000000000000600082015250565b6000620017176018836200134c565b91506200172482620016df565b602082019050919050565b600060208201905081810360008301526200174a8162001708565b9050919050565b600060a08201905081810360008301526200176d818862001653565b9050818103602083015262001783818762001653565b905062001794604083018662000ecd565b620017a3606083018562000ecd565b620017b2608083018462000ecd565b9695505050505050565b7f4f776e61626c653a206e6577206f776e657220697320746865207a65726f206160008201527f6464726573730000000000000000000000000000000000000000000000000000602082015250565b60006200181a6026836200134c565b91506200182782620017bc565b604082019050919050565b600060208201905081810360008301526200184d816200180b565b9050919050565b7f4f776e61626c653a2063616c6c6572206973206e6f7420746865206f776e6572600082015250565b60006200188c6020836200134c565b9150620018998262001854565b602082019050919050565b60006020820190508181036000830152620018bf816200187d565b905091905056fe60806040523480156200001157600080fd5b50604051620046893803806200468983398181016040528101906200003791906200050f565b848481600090805190602001906200005192919062000287565b5080600190805190602001906200006a92919062000287565b5050506200008d62000081620000d860201b60201c565b620000e060201b60201c565b6000600660146101000a81548160ff0219169083151502179055508260098190555081600a8190555080600c81905550620000cd620001a660201b60201c565b50505050506200071f565b600033905090565b6000600660009054906101000a900473ffffffffffffffffffffffffffffffffffffffff16905081600660006101000a81548173ffffffffffffffffffffffffffffffffffffffff021916908373ffffffffffffffffffffffffffffffffffffffff1602179055508173ffffffffffffffffffffffffffffffffffffffff168173ffffffffffffffffffffffffffffffffffffffff167f8be0079c531659141344cd1fd0a4f28419497f9722a3daafe3b4186f6b6457e060405160405180910390a35050565b620001b66200021b60201b60201c565b6001600660146101000a81548160ff0219169083151502179055507f62e78cea01bee320cd4e420270b5ea74000d11b0c9f74754ebdbfc544b05a25862000202620000d860201b60201c565b6040516200021191906200061a565b60405180910390a1565b6200022b6200027060201b60201c565b156200026e576040517f08c379a0000000000000000000000000000000000000000000000000000000008152600401620002659062000698565b60405180910390fd5b565b6000600660149054906101000a900460ff16905090565b8280546200029590620006e9565b90600052602060002090601f016020900481019282620002b9576000855562000305565b82601f10620002d457805160ff191683800117855562000305565b8280016001018555821562000305579182015b8281111562000304578251825591602001919060010190620002e7565b5b50905062000314919062000318565b5090565b5b808211156200033357600081600090555060010162000319565b5090565b6000604051905090565b600080fd5b600080fd5b600080fd5b600080fd5b6000601f19601f8301169050919050565b7f4e487b7100000000000000000000000000000000000000000000000000000000600052604160045260246000fd5b620003a08262000355565b810181811067ffffffffffffffff82111715620003c257620003c162000366565b5b80604052505050565b6000620003d762000337565b9050620003e5828262000395565b919050565b600067ffffffffffffffff82111562000408576200040762000366565b5b620004138262000355565b9050602081019050919050565b60005b838110156200044057808201518184015260208101905062000423565b8381111562000450576000848401525b50505050565b60006200046d6200046784620003ea565b620003cb565b9050828152602081018484840111156200048c576200048b62000350565b5b6200049984828562000420565b509392505050565b600082601f830112620004b957620004b86200034b565b5b8151620004cb84826020860162000456565b91505092915050565b6000819050919050565b620004e981620004d4565b8114620004f557600080fd5b50565b6000815190506200050981620004de565b92915050565b600080600080600060a086880312156200052e576200052d62000341565b5b600086015167ffffffffffffffff8111156200054f576200054e62000346565b5b6200055d88828901620004a1565b955050602086015167ffffffffffffffff81111562000581576200058062000346565b5b6200058f88828901620004a1565b9450506040620005a288828901620004f8565b9350506060620005b588828901620004f8565b9250506080620005c888828901620004f8565b9150509295509295909350565b600073ffffffffffffffffffffffffffffffffffffffff82169050919050565b60006200060282620005d5565b9050919050565b6200061481620005f5565b82525050565b600060208201905062000631600083018462000609565b92915050565b600082825260208201905092915050565b7f5061757361626c653a2070617573656400000000000000000000000000000000600082015250565b60006200068060108362000637565b91506200068d8262000648565b602082019050919050565b60006020820190508181036000830152620006b38162000671565b9050919050565b7f4e487b7100000000000000000000000000000000000000000000000000000000600052602260045260246000fd5b600060028204905060018216806200070257607f821691505b60208210811415620007195762000718620006ba565b5b50919050565b613f5a806200072f6000396000f3fe6080604052600436106101e35760003560e01c80636352211e11610102578063a22cb46511610095578063c87b56dd11610064578063c87b56dd1461068b578063d547cfb7146106c8578063e985e9c5146106f3578063f2fde38b14610730576101e3565b8063a22cb46514610606578063b66a0e5d1461062f578063b88d4fde14610646578063c475abff1461066f576101e3565b806378c1b860116100d157806378c1b8601461056b5780638da5cb5b1461059457806395d89b41146105bf578063a0712d68146105ea576101e3565b80636352211e1461049c5780636e04ff0d146104d957806370a0823114610517578063715018a614610554576101e3565b806331b5b9071161017a57806342842e0e1161014957806342842e0e146103f45780634585e33b1461041d578063496921ee146104465780635c975abb14610471576101e3565b806331b5b9071461037257806336f081fa1461039b578063380d831b146103c65780633ccfd60b146103dd576101e3565b8063095ea7b3116101b6578063095ea7b3146102b857806318fbffda146102e157806319d8ac611461031e57806323b872dd14610349576101e3565b806301ffc9a7146101e857806306fdde0314610225578063081812fc14610250578063089683421461028d575b600080fd5b3480156101f457600080fd5b5061020f600480360381019061020a91906127eb565b610759565b60405161021c9190612833565b60405180910390f35b34801561023157600080fd5b5061023a61083b565b60405161024791906128e7565b60405180910390f35b34801561025c57600080fd5b506102776004803603810190610272919061293f565b6108cd565b60405161028491906129ad565b60405180910390f35b34801561029957600080fd5b506102a2610913565b6040516102af91906129d7565b60405180910390f35b3480156102c457600080fd5b506102df60048036038101906102da9190612a1e565b610919565b005b3480156102ed57600080fd5b506103086004803603810190610303919061293f565b610a31565b60405161031591906129d7565b60405180910390f35b34801561032a57600080fd5b50610333610a4e565b60405161034091906129d7565b60405180910390f35b34801561035557600080fd5b50610370600480360381019061036b9190612a5e565b610a54565b005b34801561037e57600080fd5b5061039960048036038101906103949190612be6565b610ab4565b005b3480156103a757600080fd5b506103b0610ad6565b6040516103bd91906129d7565b60405180910390f35b3480156103d257600080fd5b506103db610ae0565b005b3480156103e957600080fd5b506103f2610af2565b005b34801561040057600080fd5b5061041b60048036038101906104169190612a5e565b610b90565b005b34801561042957600080fd5b50610444600480360381019061043f9190612c8f565b610bb0565b005b34801561045257600080fd5b5061045b610d11565b60405161046891906129d7565b60405180910390f35b34801561047d57600080fd5b50610486610d1b565b6040516104939190612833565b60405180910390f35b3480156104a857600080fd5b506104c360048036038101906104be919061293f565b610d32565b6040516104d091906129ad565b60405180910390f35b3480156104e557600080fd5b5061050060048036038101906104fb9190612c8f565b610de4565b60405161050e929190612d31565b60405180910390f35b34801561052357600080fd5b5061053e60048036038101906105399190612d61565b610e12565b60405161054b91906129d7565b60405180910390f35b34801561056057600080fd5b50610569610eca565b005b34801561057757600080fd5b50610592600480360381019061058d9190612d8e565b610ede565b005b3480156105a057600080fd5b506105a9610f86565b6040516105b691906129ad565b60405180910390f35b3480156105cb57600080fd5b506105d4610fb0565b6040516105e191906128e7565b60405180910390f35b61060460048036038101906105ff919061293f565b611042565b005b34801561061257600080fd5b5061062d60048036038101906106289190612e0d565b61120c565b005b34801561063b57600080fd5b50610644611222565b005b34801561065257600080fd5b5061066d60048036038101906106689190612eee565b611244565b005b61068960048036038101906106849190612f71565b6112a6565b005b34801561069757600080fd5b506106b260048036038101906106ad919061293f565b61147b565b6040516106bf91906128e7565b60405180910390f35b3480156106d457600080fd5b506106dd6114e3565b6040516106ea91906128e7565b60405180910390f35b3480156106ff57600080fd5b5061071a60048036038101906107159190612fb1565b611571565b6040516107279190612833565b60405180910390f35b34801561073c57600080fd5b5061075760048036038101906107529190612d61565b611605565b005b60007f80ac58cd000000000000000000000000000000000000000000000000000000007bffffffffffffffffffffffffffffffffffffffffffffffffffffffff1916827bffffffffffffffffffffffffffffffffffffffffffffffffffffffff1916148061082457507f5b5e139f000000000000000000000000000000000000000000000000000000007bffffffffffffffffffffffffffffffffffffffffffffffffffffffff1916827bffffffffffffffffffffffffffffffffffffffffffffffffffffffff1916145b80610834575061083382611689565b5b9050919050565b60606000805461084a90613020565b80601f016020809104026020016040519081016040528092919081815260200182805461087690613020565b80156108c35780601f10610898576101008083540402835291602001916108c3565b820191906000526020600020905b8154815290600101906020018083116108a657829003601f168201915b5050505050905090565b60006108d8826116f3565b6004600083815260200190815260200160002060009054906101000a900473ffffffffffffffffffffffffffffffffffffffff169050919050565b600d5481565b600061092482610d32565b90508073ffffffffffffffffffffffffffffffffffffffff168373ffffffffffffffffffffffffffffffffffffffff161415610995576040517f08c379a000000000000000000000000000000000000000000000000000000000815260040161098c906130c4565b60405180910390fd5b8073ffffffffffffffffffffffffffffffffffffffff166109b461173e565b73ffffffffffffffffffffffffffffffffffffffff1614806109e357506109e2816109dd61173e565b611571565b5b610a22576040517f08c379a0000000000000000000000000000000000000000000000000000000008152600401610a1990613156565b60405180910390fd5b610a2c8383611746565b505050565b6000600f6000838152602001908152602001600020549050919050565b600e5481565b610a65610a5f61173e565b826117ff565b610aa4576040517f08c379a0000000000000000000000000000000000000000000000000000000008152600401610a9b906131e8565b60405180910390fd5b610aaf838383611894565b505050565b610abc611afb565b8060089080519060200190610ad29291906126bb565b5050565b6000600954905090565b610ae8611afb565b610af0611b79565b565b610afa611afb565b6000479050610b07610f86565b73ffffffffffffffffffffffffffffffffffffffff166108fc829081150290604051600060405180830381858888f19350505050158015610b4c573d6000803e3d6000fd5b507fb244b9a17ad633c6e83b7983ee04320484956a68ddbe96a0b70dfca1cf19d723610b76610f86565b82604051610b85929190613208565b60405180910390a150565b610bab83838360405180602001604052806000815250611244565b505050565b6000600e5414158015610bd15750600a54600e5442610bcf9190613260565b115b15610c0757600a54600e6000828254610bea9190613294565b925050819055506001600d54610c009190613294565b600d819055505b6000600a54600e54610c199190613260565b9050600060106000838152602001908152602001600020805480602002602001604051908101604052809291908181526020018280548015610c7a57602002820191906000526020600020905b815481526020019060010190808311610c66575b5050505050905060005b81518161ffff161015610d0a5782600f60008361ffff1681526020019081526020016000205410610cf757610cbc8161ffff16611bdc565b601060008481526020019081526020016000206000610cdb9190612741565b600f60008261ffff168152602001908152602001600020600090555b8080610d02906132f8565b915050610c84565b5050505050565b6000600a54905090565b6000600660149054906101000a900460ff16905090565b6000806002600084815260200190815260200160002060009054906101000a900473ffffffffffffffffffffffffffffffffffffffff169050600073ffffffffffffffffffffffffffffffffffffffff168173ffffffffffffffffffffffffffffffffffffffff161415610ddb576040517f08c379a0000000000000000000000000000000000000000000000000000000008152600401610dd29061336f565b60405180910390fd5b80915050919050565b600060606000600e5414158015610e095750600a54600e5442610e079190613260565b115b91509250929050565b60008073ffffffffffffffffffffffffffffffffffffffff168273ffffffffffffffffffffffffffffffffffffffff161415610e83576040517f08c379a0000000000000000000000000000000000000000000000000000000008152600401610e7a90613401565b60405180910390fd5b600360008373ffffffffffffffffffffffffffffffffffffffff1673ffffffffffffffffffffffffffffffffffffffff168152602001908152602001600020549050919050565b610ed2611afb565b610edc6000611cf9565b565b610ee6611afb565b6000600b5414610f2b576040517f08c379a0000000000000000000000000000000000000000000000000000000008152600401610f229061346d565b60405180910390fd5b610f3483611dbf565b610f3d82611dc9565b610f4681611dd3565b7f6ddcab2c4bdee9888419ccb01c86fcc6a6a6d0bd6e19a9bdf252b3be1a2d8eb6838342604051610f799392919061348d565b60405180910390a1505050565b6000600660009054906101000a900473ffffffffffffffffffffffffffffffffffffffff16905090565b606060018054610fbf90613020565b80601f0160208091040260200160405190810160405280929190818152602001828054610feb90613020565b80156110385780601f1061100d57610100808354040283529160200191611038565b820191906000526020600020905b81548152906001019060200180831161101b57829003601f168201915b5050505050905090565b61104a611ddd565b60006110566007611e27565b9050600061106333610e12565b146110a3576040517f08c379a000000000000000000000000000000000000000000000000000000000815260040161109a90613536565b60405180910390fd5b816009546110b19190613556565b3410156110f3576040517f08c379a00000000000000000000000000000000000000000000000000000000081526004016110ea90613622565b60405180910390fd5b6000600c5414806111065750600c548111155b611145576040517f08c379a000000000000000000000000000000000000000000000000000000000815260040161113c9061368e565b60405180910390fd5b61114f3382611e35565b6111596007611e53565b600082600a546111699190613556565b600b546111769190613294565b905080600f600084815260200190815260200160002081905550601060008281526020019081526020016000208290806001815401808255809150506001900390600052602060002001600090919091909150557fd21d79be764b390bb644d9d83471395a08aee9de6d2b76d24d6b62a190b8b5ac334284846040516111ff94939291906136ae565b60405180910390a1505050565b61121e61121761173e565b8383611e69565b5050565b61122a611afb565b42600b81905550600b54600e81905550611242611fd6565b565b61125561124f61173e565b836117ff565b611294576040517f08c379a000000000000000000000000000000000000000000000000000000000815260040161128b906131e8565b60405180910390fd5b6112a084848484612039565b50505050565b6112b06007611e27565b82106112f1576040517f08c379a00000000000000000000000000000000000000000000000000000000081526004016112e89061373f565b60405180910390fd5b6112fa82610d32565b73ffffffffffffffffffffffffffffffffffffffff163373ffffffffffffffffffffffffffffffffffffffff1614611367576040517f08c379a000000000000000000000000000000000000000000000000000000000815260040161135e906137ab565b60405180910390fd5b806009546113759190613556565b3410156113b7576040517f08c379a00000000000000000000000000000000000000000000000000000000081526004016113ae9061383d565b60405180910390fd5b600081600a546113c79190613556565b600f6000858152602001908152602001600020546113e59190613294565b905080600f600085815260200190815260200160002081905550601060008281526020019081526020016000208390806001815401808255809150506001900390600052602060002001600090919091909150557fe4c965ee617424131c51dbecb47ed0deb6201915fd4fe17a6e2f628681ff12d03342858460405161146e94939291906136ae565b60405180910390a1505050565b6060611486826116f3565b6000611490612095565b905060008151116114b057604051806020016040528060008152506114db565b806114ba846120ac565b6040516020016114cb929190613899565b6040516020818303038152906040525b915050919050565b600880546114f090613020565b80601f016020809104026020016040519081016040528092919081815260200182805461151c90613020565b80156115695780601f1061153e57610100808354040283529160200191611569565b820191906000526020600020905b81548152906001019060200180831161154c57829003601f168201915b505050505081565b6000600560008473ffffffffffffffffffffffffffffffffffffffff1673ffffffffffffffffffffffffffffffffffffffff16815260200190815260200160002060008373ffffffffffffffffffffffffffffffffffffffff1673ffffffffffffffffffffffffffffffffffffffff16815260200190815260200160002060009054906101000a900460ff16905092915050565b61160d611afb565b600073ffffffffffffffffffffffffffffffffffffffff168173ffffffffffffffffffffffffffffffffffffffff16141561167d576040517f08c379a00000000000000000000000000000000000000000000000000000000081526004016116749061392f565b60405180910390fd5b61168681611cf9565b50565b60007f01ffc9a7000000000000000000000000000000000000000000000000000000007bffffffffffffffffffffffffffffffffffffffffffffffffffffffff1916827bffffffffffffffffffffffffffffffffffffffffffffffffffffffff1916149050919050565b6116fc8161220d565b61173b576040517f08c379a00000000000000000000000000000000000000000000000000000000081526004016117329061336f565b60405180910390fd5b50565b600033905090565b816004600083815260200190815260200160002060006101000a81548173ffffffffffffffffffffffffffffffffffffffff021916908373ffffffffffffffffffffffffffffffffffffffff160217905550808273ffffffffffffffffffffffffffffffffffffffff166117b983610d32565b73ffffffffffffffffffffffffffffffffffffffff167f8c5be1e5ebec7d5bd14f71427d1e84f3dd0314c0f7b2291e5b200ac8c7c3b92560405160405180910390a45050565b60008061180b83610d32565b90508073ffffffffffffffffffffffffffffffffffffffff168473ffffffffffffffffffffffffffffffffffffffff16148061184d575061184c8185611571565b5b8061188b57508373ffffffffffffffffffffffffffffffffffffffff16611873846108cd565b73ffffffffffffffffffffffffffffffffffffffff16145b91505092915050565b8273ffffffffffffffffffffffffffffffffffffffff166118b482610d32565b73ffffffffffffffffffffffffffffffffffffffff161461190a576040517f08c379a0000000000000000000000000000000000000000000000000000000008152600401611901906139c1565b60405180910390fd5b600073ffffffffffffffffffffffffffffffffffffffff168273ffffffffffffffffffffffffffffffffffffffff16141561197a576040517f08c379a000000000000000000000000000000000000000000000000000000000815260040161197190613a53565b60405180910390fd5b611985838383612279565b611990600082611746565b6001600360008573ffffffffffffffffffffffffffffffffffffffff1673ffffffffffffffffffffffffffffffffffffffff16815260200190815260200160002060008282546119e09190613260565b925050819055506001600360008473ffffffffffffffffffffffffffffffffffffffff1673ffffffffffffffffffffffffffffffffffffffff1681526020019081526020016000206000828254611a379190613294565b92505081905550816002600083815260200190815260200160002060006101000a81548173ffffffffffffffffffffffffffffffffffffffff021916908373ffffffffffffffffffffffffffffffffffffffff160217905550808273ffffffffffffffffffffffffffffffffffffffff168473ffffffffffffffffffffffffffffffffffffffff167fddf252ad1be2c89b69c2b068fc378daa952ba7f163c4a11628f55a4df523b3ef60405160405180910390a4611af683838361227e565b505050565b611b0361173e565b73ffffffffffffffffffffffffffffffffffffffff16611b21610f86565b73ffffffffffffffffffffffffffffffffffffffff1614611b77576040517f08c379a0000000000000000000000000000000000000000000000000000000008152600401611b6e90613abf565b60405180910390fd5b565b611b81611ddd565b6001600660146101000a81548160ff0219169083151502179055507f62e78cea01bee320cd4e420270b5ea74000d11b0c9f74754ebdbfc544b05a258611bc561173e565b604051611bd291906129ad565b60405180910390a1565b6000611be782610d32565b9050611bf581600084612279565b611c00600083611746565b6001600360008373ffffffffffffffffffffffffffffffffffffffff1673ffffffffffffffffffffffffffffffffffffffff1681526020019081526020016000206000828254611c509190613260565b925050819055506002600083815260200190815260200160002060006101000a81549073ffffffffffffffffffffffffffffffffffffffff021916905581600073ffffffffffffffffffffffffffffffffffffffff168273ffffffffffffffffffffffffffffffffffffffff167fddf252ad1be2c89b69c2b068fc378daa952ba7f163c4a11628f55a4df523b3ef60405160405180910390a4611cf58160008461227e565b5050565b6000600660009054906101000a900473ffffffffffffffffffffffffffffffffffffffff16905081600660006101000a81548173ffffffffffffffffffffffffffffffffffffffff021916908373ffffffffffffffffffffffffffffffffffffffff1602179055508173ffffffffffffffffffffffffffffffffffffffff168173ffffffffffffffffffffffffffffffffffffffff167f8be0079c531659141344cd1fd0a4f28419497f9722a3daafe3b4186f6b6457e060405160405180910390a35050565b8060098190555050565b80600a8190555050565b80600c8190555050565b611de5610d1b565b15611e25576040517f08c379a0000000000000000000000000000000000000000000000000000000008152600401611e1c90613b2b565b60405180910390fd5b565b600081600001549050919050565b611e4f828260405180602001604052806000815250612283565b5050565b6001816000016000828254019250508190555050565b8173ffffffffffffffffffffffffffffffffffffffff168373ffffffffffffffffffffffffffffffffffffffff161415611ed8576040517f08c379a0000000000000000000000000000000000000000000000000000000008152600401611ecf90613b97565b60405180910390fd5b80600560008573ffffffffffffffffffffffffffffffffffffffff1673ffffffffffffffffffffffffffffffffffffffff16815260200190815260200160002060008473ffffffffffffffffffffffffffffffffffffffff1673ffffffffffffffffffffffffffffffffffffffff16815260200190815260200160002060006101000a81548160ff0219169083151502179055508173ffffffffffffffffffffffffffffffffffffffff168373ffffffffffffffffffffffffffffffffffffffff167f17307eab39ab6107e8899845ad3d59bd9653f200f220920489ca2b5937696c3183604051611fc99190612833565b60405180910390a3505050565b611fde6122de565b6000600660146101000a81548160ff0219169083151502179055507f5db9ee0a495bf2e6ff9c91a7834c1ba4fdd244a5e8aa4e537bd38aeae4b073aa61202261173e565b60405161202f91906129ad565b60405180910390a1565b612044848484611894565b61205084848484612327565b61208f576040517f08c379a000000000000000000000000000000000000000000000000000000000815260040161208690613c29565b60405180910390fd5b50505050565b606060405180602001604052806000815250905090565b606060008214156120f4576040518060400160405280600181526020017f30000000000000000000000000000000000000000000000000000000000000008152509050612208565b600082905060005b6000821461212657808061210f90613c49565b915050600a8261211f9190613cc1565b91506120fc565b60008167ffffffffffffffff81111561214257612141612abb565b5b6040519080825280601f01601f1916602001820160405280156121745781602001600182028036833780820191505090505b5090505b600085146122015760018261218d9190613260565b9150600a8561219c9190613cf2565b60306121a89190613294565b60f81b8183815181106121be576121bd613d23565b5b60200101907effffffffffffffffffffffffffffffffffffffffffffffffffffffffffffff1916908160001a905350600a856121fa9190613cc1565b9450612178565b8093505050505b919050565b60008073ffffffffffffffffffffffffffffffffffffffff166002600084815260200190815260200160002060009054906101000a900473ffffffffffffffffffffffffffffffffffffffff1673ffffffffffffffffffffffffffffffffffffffff1614159050919050565b505050565b505050565b61228d83836124be565b61229a6000848484612327565b6122d9576040517f08c379a00000000000000000000000000000000000000000000000000000000081526004016122d090613c29565b60405180910390fd5b505050565b6122e6610d1b565b612325576040517f08c379a000000000000000000000000000000000000000000000000000000000815260040161231c90613d9e565b60405180910390fd5b565b60006123488473ffffffffffffffffffffffffffffffffffffffff16612698565b156124b1578373ffffffffffffffffffffffffffffffffffffffff1663150b7a0261237161173e565b8786866040518563ffffffff1660e01b81526004016123939493929190613dbe565b602060405180830381600087803b1580156123ad57600080fd5b505af19250505080156123de57506040513d601f19601f820116820180604052508101906123db9190613e1f565b60015b612461573d806000811461240e576040519150601f19603f3d011682016040523d82523d6000602084013e612413565b606091505b50600081511415612459576040517f08c379a000000000000000000000000000000000000000000000000000000000815260040161245090613c29565b60405180910390fd5b805181602001fd5b63150b7a0260e01b7bffffffffffffffffffffffffffffffffffffffffffffffffffffffff1916817bffffffffffffffffffffffffffffffffffffffffffffffffffffffff1916149150506124b6565b600190505b949350505050565b600073ffffffffffffffffffffffffffffffffffffffff168273ffffffffffffffffffffffffffffffffffffffff16141561252e576040517f08c379a000000000000000000000000000000000000000000000000000000000815260040161252590613e98565b60405180910390fd5b6125378161220d565b15612577576040517f08c379a000000000000000000000000000000000000000000000000000000000815260040161256e90613f04565b60405180910390fd5b61258360008383612279565b6001600360008473ffffffffffffffffffffffffffffffffffffffff1673ffffffffffffffffffffffffffffffffffffffff16815260200190815260200160002060008282546125d39190613294565b92505081905550816002600083815260200190815260200160002060006101000a81548173ffffffffffffffffffffffffffffffffffffffff021916908373ffffffffffffffffffffffffffffffffffffffff160217905550808273ffffffffffffffffffffffffffffffffffffffff16600073ffffffffffffffffffffffffffffffffffffffff167fddf252ad1be2c89b69c2b068fc378daa952ba7f163c4a11628f55a4df523b3ef60405160405180910390a46126946000838361227e565b5050565b6000808273ffffffffffffffffffffffffffffffffffffffff163b119050919050565b8280546126c790613020565b90600052602060002090601f0160209004810192826126e95760008555612730565b82601f1061270257805160ff1916838001178555612730565b82800160010185558215612730579182015b8281111561272f578251825591602001919060010190612714565b5b50905061273d9190612762565b5090565b508054600082559060005260206000209081019061275f9190612762565b50565b5b8082111561277b576000816000905550600101612763565b5090565b6000604051905090565b600080fd5b600080fd5b60007fffffffff0000000000000000000000000000000000000000000000000000000082169050919050565b6127c881612793565b81146127d357600080fd5b50565b6000813590506127e5816127bf565b92915050565b60006020828403121561280157612800612789565b5b600061280f848285016127d6565b91505092915050565b60008115159050919050565b61282d81612818565b82525050565b60006020820190506128486000830184612824565b92915050565b600081519050919050565b600082825260208201905092915050565b60005b8381101561288857808201518184015260208101905061286d565b83811115612897576000848401525b50505050565b6000601f19601f8301169050919050565b60006128b98261284e565b6128c38185612859565b93506128d381856020860161286a565b6128dc8161289d565b840191505092915050565b6000602082019050818103600083015261290181846128ae565b905092915050565b6000819050919050565b61291c81612909565b811461292757600080fd5b50565b60008135905061293981612913565b92915050565b60006020828403121561295557612954612789565b5b60006129638482850161292a565b91505092915050565b600073ffffffffffffffffffffffffffffffffffffffff82169050919050565b60006129978261296c565b9050919050565b6129a78161298c565b82525050565b60006020820190506129c2600083018461299e565b92915050565b6129d181612909565b82525050565b60006020820190506129ec60008301846129c8565b92915050565b6129fb8161298c565b8114612a0657600080fd5b50565b600081359050612a18816129f2565b92915050565b60008060408385031215612a3557612a34612789565b5b6000612a4385828601612a09565b9250506020612a548582860161292a565b9150509250929050565b600080600060608486031215612a7757612a76612789565b5b6000612a8586828701612a09565b9350506020612a9686828701612a09565b9250506040612aa78682870161292a565b9150509250925092565b600080fd5b600080fd5b7f4e487b7100000000000000000000000000000000000000000000000000000000600052604160045260246000fd5b612af38261289d565b810181811067ffffffffffffffff82111715612b1257612b11612abb565b5b80604052505050565b6000612b2561277f565b9050612b318282612aea565b919050565b600067ffffffffffffffff821115612b5157612b50612abb565b5b612b5a8261289d565b9050602081019050919050565b82818337600083830152505050565b6000612b89612b8484612b36565b612b1b565b905082815260208101848484011115612ba557612ba4612ab6565b5b612bb0848285612b67565b509392505050565b600082601f830112612bcd57612bcc612ab1565b5b8135612bdd848260208601612b76565b91505092915050565b600060208284031215612bfc57612bfb612789565b5b600082013567ffffffffffffffff811115612c1a57612c1961278e565b5b612c2684828501612bb8565b91505092915050565b600080fd5b600080fd5b60008083601f840112612c4f57612c4e612ab1565b5b8235905067ffffffffffffffff811115612c6c57612c6b612c2f565b5b602083019150836001820283011115612c8857612c87612c34565b5b9250929050565b60008060208385031215612ca657612ca5612789565b5b600083013567ffffffffffffffff811115612cc457612cc361278e565b5b612cd085828601612c39565b92509250509250929050565b600081519050919050565b600082825260208201905092915050565b6000612d0382612cdc565b612d0d8185612ce7565b9350612d1d81856020860161286a565b612d268161289d565b840191505092915050565b6000604082019050612d466000830185612824565b8181036020830152612d588184612cf8565b90509392505050565b600060208284031215612d7757612d76612789565b5b6000612d8584828501612a09565b91505092915050565b600080600060608486031215612da757612da6612789565b5b6000612db58682870161292a565b9350506020612dc68682870161292a565b9250506040612dd78682870161292a565b9150509250925092565b612dea81612818565b8114612df557600080fd5b50565b600081359050612e0781612de1565b92915050565b60008060408385031215612e2457612e23612789565b5b6000612e3285828601612a09565b9250506020612e4385828601612df8565b9150509250929050565b600067ffffffffffffffff821115612e6857612e67612abb565b5b612e718261289d565b9050602081019050919050565b6000612e91612e8c84612e4d565b612b1b565b905082815260208101848484011115612ead57612eac612ab6565b5b612eb8848285612b67565b509392505050565b600082601f830112612ed557612ed4612ab1565b5b8135612ee5848260208601612e7e565b91505092915050565b60008060008060808587031215612f0857612f07612789565b5b6000612f1687828801612a09565b9450506020612f2787828801612a09565b9350506040612f388782880161292a565b925050606085013567ffffffffffffffff811115612f5957612f5861278e565b5b612f6587828801612ec0565b91505092959194509250565b60008060408385031215612f8857612f87612789565b5b6000612f968582860161292a565b9250506020612fa78582860161292a565b9150509250929050565b60008060408385031215612fc857612fc7612789565b5b6000612fd685828601612a09565b9250506020612fe785828601612a09565b9150509250929050565b7f4e487b7100000000000000000000000000000000000000000000000000000000600052602260045260246000fd5b6000600282049050600182168061303857607f821691505b6020821081141561304c5761304b612ff1565b5b50919050565b7f4552433732313a20617070726f76616c20746f2063757272656e74206f776e6560008201527f7200000000000000000000000000000000000000000000000000000000000000602082015250565b60006130ae602183612859565b91506130b982613052565b604082019050919050565b600060208201905081810360008301526130dd816130a1565b9050919050565b7f4552433732313a20617070726f76652063616c6c6572206973206e6f7420746f60008201527f6b656e206f776e6572206e6f7220617070726f76656420666f7220616c6c0000602082015250565b6000613140603e83612859565b915061314b826130e4565b604082019050919050565b6000602082019050818103600083015261316f81613133565b9050919050565b7f4552433732313a2063616c6c6572206973206e6f7420746f6b656e206f776e6560008201527f72206e6f7220617070726f766564000000000000000000000000000000000000602082015250565b60006131d2602e83612859565b91506131dd82613176565b604082019050919050565b60006020820190508181036000830152613201816131c5565b9050919050565b600060408201905061321d600083018561299e565b61322a60208301846129c8565b9392505050565b7f4e487b7100000000000000000000000000000000000000000000000000000000600052601160045260246000fd5b600061326b82612909565b915061327683612909565b92508282101561328957613288613231565b5b828203905092915050565b600061329f82612909565b91506132aa83612909565b9250827fffffffffffffffffffffffffffffffffffffffffffffffffffffffffffffffff038211156132df576132de613231565b5b828201905092915050565b600061ffff82169050919050565b6000613303826132ea565b915061ffff82141561331857613317613231565b5b600182019050919050565b7f4552433732313a20696e76616c696420746f6b656e2049440000000000000000600082015250565b6000613359601883612859565b915061336482613323565b602082019050919050565b600060208201905081810360008301526133888161334c565b9050919050565b7f4552433732313a2061646472657373207a65726f206973206e6f74206120766160008201527f6c6964206f776e65720000000000000000000000000000000000000000000000602082015250565b60006133eb602983612859565b91506133f68261338f565b604082019050919050565b6000602082019050818103600083015261341a816133de565b9050919050565b7f496e76616c696420416374696f6e3a2053616c65206861732073746172746564600082015250565b6000613457602083612859565b915061346282613421565b602082019050919050565b600060208201905081810360008301526134868161344a565b9050919050565b60006060820190506134a260008301866129c8565b6134af60208301856129c8565b6134bc60408301846129c8565b949350505050565b7f596f752063616e6e6f74207075726368617365206d6f7265207468616e20312060008201527f6f66207468697320737562736372697074696f6e6e0000000000000000000000602082015250565b6000613520603583612859565b915061352b826134c4565b604082019050919050565b6000602082019050818103600083015261354f81613513565b9050919050565b600061356182612909565b915061356c83612909565b9250817fffffffffffffffffffffffffffffffffffffffffffffffffffffffffffffffff04831182151516156135a5576135a4613231565b5b828202905092915050565b7f4e6f7420656e6f75676820457468657220746f2070757263686173652074686960008201527f7320737562736372697074696f6e206c656e6774680000000000000000000000602082015250565b600061360c603583612859565b9150613617826135b0565b604082019050919050565b6000602082019050818103600083015261363b816135ff565b9050919050565b7f5468697320737562736372697074696f6e2068617320736f6c64206f75740000600082015250565b6000613678601e83612859565b915061368382613642565b602082019050919050565b600060208201905081810360008301526136a78161366b565b9050919050565b60006080820190506136c3600083018761299e565b6136d060208301866129c8565b6136dd60408301856129c8565b6136ea60608301846129c8565b95945050505050565b7f5468697320746f6b656e496420646f65736e2774206578697374000000000000600082015250565b6000613729601a83612859565b9150613734826136f3565b602082019050919050565b600060208201905081810360008301526137588161371c565b9050919050565b7f596f7520646f6e2774206f776e207468697320737562736372697074696f6e00600082015250565b6000613795601f83612859565b91506137a08261375f565b602082019050919050565b600060208201905081810360008301526137c481613788565b9050919050565b7f4e6f7420656e6f75676820457468657220746f2072656e65772074686973206c60008201527f656e677468000000000000000000000000000000000000000000000000000000602082015250565b6000613827602583612859565b9150613832826137cb565b604082019050919050565b600060208201905081810360008301526138568161381a565b9050919050565b600081905092915050565b60006138738261284e565b61387d818561385d565b935061388d81856020860161286a565b80840191505092915050565b60006138a58285613868565b91506138b18284613868565b91508190509392505050565b7f4f776e61626c653a206e6577206f776e657220697320746865207a65726f206160008201527f6464726573730000000000000000000000000000000000000000000000000000602082015250565b6000613919602683612859565b9150613924826138bd565b604082019050919050565b600060208201905081810360008301526139488161390c565b9050919050565b7f4552433732313a207472616e736665722066726f6d20696e636f72726563742060008201527f6f776e6572000000000000000000000000000000000000000000000000000000602082015250565b60006139ab602583612859565b91506139b68261394f565b604082019050919050565b600060208201905081810360008301526139da8161399e565b9050919050565b7f4552433732313a207472616e7366657220746f20746865207a65726f2061646460008201527f7265737300000000000000000000000000000000000000000000000000000000602082015250565b6000613a3d602483612859565b9150613a48826139e1565b604082019050919050565b60006020820190508181036000830152613a6c81613a30565b9050919050565b7f4f776e61626c653a2063616c6c6572206973206e6f7420746865206f776e6572600082015250565b6000613aa9602083612859565b9150613ab482613a73565b602082019050919050565b60006020820190508181036000830152613ad881613a9c565b9050919050565b7f5061757361626c653a2070617573656400000000000000000000000000000000600082015250565b6000613b15601083612859565b9150613b2082613adf565b602082019050919050565b60006020820190508181036000830152613b4481613b08565b9050919050565b7f4552433732313a20617070726f766520746f2063616c6c657200000000000000600082015250565b6000613b81601983612859565b9150613b8c82613b4b565b602082019050919050565b60006020820190508181036000830152613bb081613b74565b9050919050565b7f4552433732313a207472616e7366657220746f206e6f6e20455243373231526560008201527f63656976657220696d706c656d656e7465720000000000000000000000000000602082015250565b6000613c13603283612859565b9150613c1e82613bb7565b604082019050919050565b60006020820190508181036000830152613c4281613c06565b9050919050565b6000613c5482612909565b91507fffffffffffffffffffffffffffffffffffffffffffffffffffffffffffffffff821415613c8757613c86613231565b5b600182019050919050565b7f4e487b7100000000000000000000000000000000000000000000000000000000600052601260045260246000fd5b6000613ccc82612909565b9150613cd783612909565b925082613ce757613ce6613c92565b5b828204905092915050565b6000613cfd82612909565b9150613d0883612909565b925082613d1857613d17613c92565b5b828206905092915050565b7f4e487b7100000000000000000000000000000000000000000000000000000000600052603260045260246000fd5b7f5061757361626c653a206e6f7420706175736564000000000000000000000000600082015250565b6000613d88601483612859565b9150613d9382613d52565b602082019050919050565b60006020820190508181036000830152613db781613d7b565b9050919050565b6000608082019050613dd3600083018761299e565b613de0602083018661299e565b613ded60408301856129c8565b8181036060830152613dff8184612cf8565b905095945050505050565b600081519050613e19816127bf565b92915050565b600060208284031215613e3557613e34612789565b5b6000613e4384828501613e0a565b91505092915050565b7f4552433732313a206d696e7420746f20746865207a65726f2061646472657373600082015250565b6000613e82602083612859565b9150613e8d82613e4c565b602082019050919050565b60006020820190508181036000830152613eb181613e75565b9050919050565b7f4552433732313a20746f6b656e20616c7265616479206d696e74656400000000600082015250565b6000613eee601c83612859565b9150613ef982613eb8565b602082019050919050565b60006020820190508181036000830152613f1d81613ee1565b905091905056fea26469706673582212208b5450d43d3c5e62f0e2f3d2c784851bb1ba2ec5703a105adc1936d99f5a2a3c64736f6c63430008090033a2646970667358221220e70d7cc40d6b042080aefd6694288283bca54a028f7b0b1934decab4fbc2f48664736f6c63430008090033",
  "linkReferences": {},
  "deployedLinkReferences": {}
}